:020000040020DA
:10200000781600208D2220003B66200039662000D3
:102010003966200039662000396620000000000083
:102020000000000000000000000000008D6C200097
:102030003966200000000000AB6C20009F66200085
:10204000B1662000B7662000BD662000C366200090
:1020500000000000A5662000AB6620003966200065
:1020600039662000000000000000000000000000B1
:1020700000000000000000003966200000000000A1
:1020800000000000000000003966200039662000D2
:102090003966200039662000396620003966200044
:1020A0003966200039662000396620003966200034
:1020B0003966200039662000396620003966200024
:1020C0003966200039662000396620003966200014
:1020D0003966200000000000000000000000000041
:1020E00000000000000000000000000000000000F0
:1020F0000000000000000000B1372000C1372000C0
:1021000000000000000000000000000000000000CF
:1021100000000000000000000000000000000000BF
:1021200000000000000000000000000000000000AF
:10213000000000000000000000000000000000009F
:10214000000000000000000000000000000000008F
:10215000000000000000000000000000000000007F
:10216000000000000000000000000000000000006F
:10217000000000000000000000000000000000005F
:10218000000000000000000000000000000000004F
:10219000000000000000000000000000000000003F
:1021A000000000000000000000000000000000002F
:1021B000000000000000000000000000000000001F
:1021C000000000000000000000000000000000000F
:1021D00000000000000000000000000000000000FF
:1021E00000000000000000000000000000000000EF
:1021F00000000000000000000000000000000000DF
:1022000000000000000000000000000000000000CE
:1022100000000000000000000000000000000000BE
:1022200000000000000000000000000000000000AE
:10223000000000000000000000000000000000009E
:10224000000000000000000000000000000000008E
:10225000000000000000000000000000000000007E
:10226000000000000000000000000000000000006E
:102270003966200095362000B93620002D2D20002B
:1022800021392000292820003966200008B5094B93
:10229000FF221A600848094A4824E3690849121ACB
:1022A00098470848084AA3690021121A984700F085
:1022B0000DF8FEE7B4200D4040000020F40000209F
:1022C0005C752000F8000020740E00207FB500F03F
:1022D0000BFC00F0C5FC00F021FC00F00FFA01F04F
:1022E0000DFB04F067FA00F0B3FC02F01BFA1020BB
:1022F00004F0A6F902F040F900F0E2FB002000F043
:10230000EDFA012000F0EAFA0020444900F0C2FB97
:10231000434B0120009304210246032301F064FB98
:1023200002F08AFA62B6402004F08AF93D4804F0CF
:10233000ECF93D4804F0E9F900F082F9002002F0E0
:102340009DFA01F0CDF93948002102F0A1F901F020
:102350008DFF04F09FF900F00DFD00F029FD02F063
:10236000EFFC082102A801F0EFFA9DF80F309DF86C
:102370000E502F4C43EA0525BDF80E302D48238022
:1023800001F096FB2C4E21782C4801F091FB6178EE
:102390002B4801F08DFBF46A4AF6CD310220A047AC
:1023A00029460320A0471A210120A047082202A99C
:1023B000736B0B209847234801F07AFB224B186877
:1023C00004F0A3F9214801F073FB214B186804F0D5
:1023D0009CF9204801F06CFB1F4B186804F095F93C
:1023E0001E48002102F054F91D4B01219B688120F9
:1023F000984704F0CAF91B4804F0BDF900F066FBE9
:10240000802004F01DF900F067FB02F0CDF810F019
:10241000FF0FF8D101F00AFAF5E700BFF5472000F9
:10242000A08601004E7320005A7320007400002023
:10243000300E00206A732000607220008873200034
:102440008E73200094732000C47220009A732000C1
:10245000D8722000A0732000007320009400002098
:10246000787120003C732000024A136843F0F003A7
:102470001360704700B40D40014B1860704700BFF7
:10248000C0B30D4020B1012805D1044B1878704726
:10249000034B186870470020704700BFF40C002001
:1024A00020B00D4010B5094A002013780133137095
:1024B000074B197802F0C4F8BDE81040054B0648F8
:1024C0001968064A002301F007BF00BFF40C002082
:1024D0006E0E00203001002008010020A5242000FD
:1024E000812808B52AD0B0F5807F39D0802839D12D
:1024F00002F03AF81C4B1D4A18701368022023F0B2
:102500000803136052F8203C032123F0080342F82B
:10251000203C52F81C3C23F0080342F81C3C52F8C3
:10252000183C43F0080342F8183C042200F0A6FBD4
:102530000F480221032200F043FB13E00D4B0E482D
:102540001A6829B142F008021A600423036005E00A
:1025500022F008021A600423C0F88030084608BD43
:10256000064B1960012008BD6E0E002020B40D40FE
:102570008125200010B40D4000E100E03001002072
:1025800008B50F4804F01FF9C0B108210C4804F049
:1025900013F90C4B196861B10B4B00221A700B4BED
:1025A0000B481B681BB90B4A01F096FE01E001F0D5
:1025B0009DFEBDE80840084802F006BA08BD00BF0D
:1025C0002801002030010020F40C002020B00D4034
:1025D00008010020A524200078712000034B002270
:1025E0001A60012243F8402C704700BF80C00D40A4
:1025F000054B1A6842F020021A601A6842F0100275
:102600001A60FFF7EBBF00BF00C40D40044B186811
:10261000C0F30720030904BF1030C0B2704700BFE9
:102620001C300D40054B1868C0F3C21001289ABF3A
:10263000C0F1020040034FF40040704714300D40D9
:102640002DE9F04788B0FFF7E1FF174B48251C68DC
:10265000AB68074698476B68804698470646FFF781
:10266000E1FF054600F094FA824600F09DFA8146AB
:1026700000F04AFAB60AC4F34003AD0A04F00104BC
:1026800002930690009601950394CDF810A0CDF822
:1026900014904146C7F3071207F00F03034801F0F7
:1026A00007FA08B0BDE8F0871C300D40AD7320007C
:1026B000F8B500F077F80F4B0024D3E900673A46ED
:1026C000B04238BF7A1C15460443C3E90045DFF821
:1026D00028E0DEE90001821B61EB070312196B4160
:1026E000CEE9002301F0AAFE18B1BDE8F84001F0E0
:1026F00035BEF8BDF8000020000100200D4B0E4A49
:10270000E0215A600D4A82F82310002207219A60C6
:1027100019600B490B6843F001030B60094B1A6009
:10272000042243F80C2C012243F8082C0F22DA6211
:10273000704700BF10E000E047E8010000ED00E056
:1027400008200D400C000340034BD3E90023100A7E
:1027500040EA0360704700BFF8000020054B186096
:102760001C3B1A6842F001021A601A68D207FCD4B6
:10277000704700BF2800034010B5064C236823F0C3
:1027800001032360FFF794FF236843F001032360F4
:1027900010BD00BF10E000E0014B1868704700BF9B
:1027A00034010020074B084A196804331B6812687B
:1027B000120442EA0323054A0B43106843EA00600F
:1027C000704700BF40500D4048500D404C500D40E8
:1027D00010B50446104B1B68DB07FBD572B6FFF73C
:1027E000E1FF231A062BD8BFC41D0C4B220E1A6022
:1027F000C4F3074243F8042CC4F3072243F8082C1F
:10280000E2B243F80C2C62B6054B4FF400321C6068
:10281000044B1A6110BD00BF50500D404C500D408C
:102820003401002000E100E008B500F0E5FF074BAF
:1028300000221A60064B4FF40032C3F89021C3F80F
:102840009020BDE8084001F059BF00BF34010020CE
:1028500000E100E0064B1B681B075FBF054B1868D3
:1028600080F00800C0F3C00048BF0020704700BFE0
:1028700018C0004018D00040164A38B52C2303FB7E
:1028800000234FF6BF72DC680546236C62649BB27E
:1028900013F050020DD0A369DB0609D40E4B53F898
:1028A00025301BB12068C0B29847F4E72368F2E7EF
:1028B00038BD13F4D06F0BD04FF440732363FF2364
:1028C0006360E36AE262E362236B43F00103236324
:1028D00038BD00BF88712000380100202DE9F04F7D
:1028E000012885B0064600F2C3802C244443624B85
:1028F0001D1995F920A005F12007BAF1000F99469E
:10290000C0F2B68095F92230002BC0F2B1805B484E
:1029100000F0E4FF5A4A59F804301168EC680B43A0
:10292000136051686B6895F921B00B43536091684F
:10293000AB6895F822800B4393600023C4F8C83F2E
:102940002B690BEBCA021A6095F823305FFA88FCFA
:1029500001939DF80430604619462A7DCDF80CC0DD
:10296000029300F095F9029BDDF80CC01946604611
:10297000082200F083F94FFA88F842494FEA0838F4
:102980009DF9042058F80100012303FA02F20243E2
:1029900048F801204FEA0A3A5AF8010003FA0BF20C
:1029A00002434AF801205022A263A26B95F824004A
:1029B00042F4D062A263022262634FF44072226347
:1029C000AA696262EA69A2627022E26242B2002AE5
:1029D0000C4614DB95F925102B4D41EAC201296004
:1029E0007979120315594FB2BB402B431351002282
:1029F00000F044F9254A136843F4004313602C2384
:102A000003FB069393F8265020336FB2002F1CDB94
:102A100093F807A0EDB25FFA8AF8284641460122F2
:102A20003F0300F035F94FFA8AFA3A59012303FAC5
:102A30000AF313433B5108222846414600F01EF991
:102A4000124A136843F4804313602C2303FB069659
:102A5000F268136B43F00103136396F828300122E8
:102A6000590903F01F0302FA03F3094A42F821301F
:102A700005B0BDE8F08F00BF887120005528200008
:102A800028200D4020940D4004410D4030D00040DE
:102A900000E100E001289CBF014B43F82010704783
:102AA00038010020012808D8044B2C2202FB0030FA
:102AB000C3689A699206FCD4196070478871200037
:102AC000014B00221A60704700500D40014B082254
:102AD0001A60704700500D40024BA0221A6050222D
:102AE0001A60704700500D40014B024A9A607047CF
:102AF00000ED00E000202000024B1868C0F3815078
:102B0000704700BF04200D4008B5FFF7F5FF024BEA
:102B100053F8200008BD00BFE071200038B5164D05
:102B2000164C2B68032023F040032B6023680621FA
:102B300023F040032360012200F0A0F82B6801225B
:102B400023F080032B602368032023F0800323609D
:102B5000072100F093F80A4A0A4B1A600A4B0B4A05
:102B600019680A40002AF9D11A685101FCD41A6880
:102B70005201FCD538BD00BF20C40D4000C40D403B
:102B80000101020000200D4004200D400000010161
:102B9000034B04481B6803F007031841704700BF4C
:102BA00004200D400048E801034B04481B68C3F3B0
:102BB00002231841704700BF04200D400048E8017F
:102BC000024B02EBC10243F8220070474001002093
:102BD000F8B507460E46094D002405EB411547FAA6
:102BE00004F3DB07E1B204D555F824300BB13046CD
:102BF00098470134082CF2D1F8BD00BF40010020F5
:102C00002DE9F04780464FEA0837DFF8409007F19A
:102C1000804505F5592500F0EFFDD5F8186457F803
:102C200009404FEAC80A24FA0AF446EA0400E4B26A
:102C3000C0B24146F6B204FA0AF4FFF7C9FFC5F87C
:102C40001C6447F80940BDE8F08700BF18970D40A5
:102C500002480021802203F0A1BC00BF40010020F7
:102C6000034A044B1A60044B803A1A60704700BF55
:102C700080400D40C4010020C0010020034B01EB47
:102C8000C0011B6843F82120704700BFC401002029
:102C9000034B01EBC0011B6843F82120704700BFC4
:102CA000C00100200E2870B50BD1164B164E1C68C3
:102CB00044F002051D60356825F03F0343F0010331
:102CC0003360124E336823F0FF031A43114301436C
:102CD00031600F4B1B681B06FBD50E4B0E4A1B6861
:102CE00012680E2803F0FC0343EA022308BF064AD9
:102CF0009BB204BF1560034A9BB208BF146018B2B0
:102D000070BD00BF34000144F486084008700D40D7
:102D100000700D400C700D4010700D40024B186893
:102D2000B0FA80F04009704700B7084010B5074B73
:102D30004FF40042064CC3F89021C3F8902020685D
:102D400018B101F0BDFC0023236010BD00E100E0DC
:102D5000C8010020064A136843F002031360536859
:102D600043F002035360936843F00203936070479B
:102D700048200D4007B50C4800F0B0FDFFF7EAFF12
:102D80000A4B1A6842F002021A6000220192019A6C
:102D90000F2A02DC019A0132F8E71A6822F00202D7
:102DA0001A6003B05DF804FB1D2D200054200D4077
:102DB000064A136823F002031360536823F00203EA
:102DC0005360936823F002039360704748200D40DE
:102DD000084B93F90020002A09DB074AED21116016
:102DE0001160E32111601A7862F07F021A700120ED
:102DF000704700BFF80C0020388808400B4B1A6859
:102E00009207FBD41B685B065FBF094BED221A607B
:102E10001A60084B1B6813B1054BEF221A60064A73
:102E20000120137803F07F03137070474C8608402D
:102E3000388808402C860840F80C002038B5A0F1EE
:102E40000B04E3B20F2B054613D80B4B1B6813F092
:102E50003F0302D0FFF7D2FF012304EB8404074AAB
:102E60000B3414600BB1FFF7B3FF054BE8B21D70D4
:102E700000E0FF2040B238BD488608403C8608404C
:102E8000F300002010B50B4B1B68990603D1FFF728
:102E90009FFF012300E00023074A1268D207FBD5F9
:102EA000064A1468C4F300140BB1FFF7A7FF2046CD
:102EB00010BD00BF48860840648608404C86084024
:102EC000044B186800F02200A0F12003584258413A
:102ED000704700BF4C860840024B186800F0400065
:102EE000704700BF4C86084038B50C46002900F0FA
:102EF0008880102800F28780DFE800F0090F1A1C94
:102F000023394253586F738585787A7C7F003F4B15
:102F10001B68003318BF012370E03D4B05221B687E
:102F200003F07F030B3B93FBF2F30B33DBB265E063
:102F3000384B00E0384B1A68043B1B6843EA022315
:102F40005CE000230B60354B354A1B6803F001033E
:102F50000B601268900644BF43F002030B60314BD4
:102F60001B78002B4BD00B6843F0040346E02E4B3C
:102F700000201B780860002B41D001230B6038BD76
:102F80002A4B1A680023D2B2294901EBC300007909
:102F9000904202D851F8333030E001330E2BF3D198
:102FA00028E0244B1B685BB2493B27E0224B1B689F
:102FB000990603D1FFF70CFF012300E000231F4A0D
:102FC0001268D207FBD51E4A1568493DEDB20BB118
:102FD000FFF714FF6DB2256011E01A4B93F9003032
:102FE0000CE0194B1B7803F07F0307E00B2305E08F
:102FF0001A2303E06FF0170300E00723236000208B
:1030000038BD022038BD012038BD00BF2C860840E5
:103010003C860840CC850840D4850840008608409E
:1030200024860840F70C0020F2000020408608406B
:10303000F0712000588608404886084064860840A1
:1030400060860840F60C0020F50C002038B50546D7
:103050000C46134B1B689B07FBD4124B93F90030B3
:10306000002B01DBFFF7B4FE0F4BEE221A60691E46
:103070001A60A21C43F8102C2144022000F04AFBE5
:10308000013C0A4924012143022000F055FB0220A3
:1030900000F05CFB022000F071FB002038BD00BF97
:1030A0004C860840F80C00203888084002C001C057
:1030B000F8B5214B93F90030002B0DDBFFF772FBC5
:1030C0000446FFF785FEFFF76DFB6FF009031B1B3E
:1030D000C342F8D4012600E00026184B1B7823B920
:1030E000174D2B68990604D405E0FFF7CBFE0028A6
:1030F000F6D10220F8BD134CE923236004272B6886
:103100009A0707D4013F17F0FF0703D00620FFF707
:1031100025FBF4E72B689B0704D4EE232360236090
:10312000012403E02C6814F00204FBD10EB1FFF778
:1031300065FE2046F8BD00BFF80C0020F20000201C
:103140004C86084038880840044B1A6810B142F099
:10315000010201E022F001021A6070470086084077
:103160000B280DD1082A0DD161B1074B083111F898
:10317000012D43F8042F054A9342F8D100207047EF
:103180000120704702207047A4850840C48508408C
:1031900070B5304E336813F0400308D02E4D2B68C5
:1031A000DCB21B0605D52D4BED221A601A600020FB
:1031B00070BD042CF7D9023C8C42F4DCE4B2032C41
:1031C00021D001190139032000F0ACFA631E244913
:1031D0001B010320194300F0AFFA032000F0B6FAF8
:1031E000032000F0CBFA032000F0D4FA0028FAD133
:1031F00029681C4B4939C9B219702B681A4D180639
:103200002B70D0D506E02B6803702B6843702B68B9
:103210008370EDE749B289B2042001F0B9FE297844
:10322000032001F07F0101F0B3FE104B1B7873B94E
:1032300033685A060BD5074B1B681B0603D50C4891
:1032400001F03EFA03E0054BED221A601A602046B9
:1032500070BD00BF4C860840288808403888084068
:1032600002C0010CF60C0020F50C0020F70C002029
:103270004C0000200B282DE9F84F8A4611D1082A6E
:1032800040F0828000297FD0414B01F1FF3A53F892
:10329000042D0AF8012F3F4A9342F8D10020BDE8DF
:1032A000F88F0C286DD1042A6ED100296CD03A49D0
:1032B0003A480B68DFF8EC9023F007030B600368D3
:1032C000DFF8E4B043F008030360DBF80040D9F80E
:1032D00000200B68DFF8D4C0DFF8D48023F070033F
:1032E0000B60D8F80050DCF80030E4B2120244EA77
:1032F000036392B2DFF8BCE01A43EBB242EA034345
:103300000024DEF8002044EA03060B68D5B223F05F
:10331000070343F001030B6003682F4643F00803E3
:103320000360DBF80000D9F800200B68120223F0DC
:10333000700343F010030B60D8F80050DCF8003045
:10334000C1B241EA036392B21A43EBB242EA0343C9
:10335000DEF8002044EA03085FFA82F9FFF722FA58
:10336000B6EB080667EB0907F903054641EA564143
:10337000F0030B4A002302F091FD281ACAF800005E
:103380008CE70120BDE8F88F0220BDE8F88F00BF70
:10339000C8850840A885084010880840048808406F
:1033A0000048E80118880840148808402088084030
:1033B000248808401C880840214B1870002834D00D
:1033C000204B1B681B03FBD51F4B1A6842F00202FF
:1033D0001A601A6842F001021A601A681A49500706
:1033E000FBD50A6822F001020A601968164A4907EB
:1033F000FBD4116841F002011160116841F0010134
:1034000011601A685207FCD5104A136823F00403B0
:103410001360D2F8A83123F00403C2F8A8310C4B92
:103420004FF40052C3F890207047084A136843F0E5
:1034300004031360064B4FF400521A61704700BF3B
:10344000F70C002004200D40048808408C860840BA
:1034500000E100E010B50C4607285CD8DFE800F07A
:10346000040F1B1F263C4256012903D1FFF7B0FC75
:10347000002010BD002950D1FFF7C0FCF8E7A1F1F2
:103480000B030F2B49D8C8B2FFF7D8FC431C0CBF65
:103490000320002010BD8CB2E2B2214B02E08CB2BE
:1034A000204BE2B2240A1A605C60E1E731F00703C6
:1034B00033D101F00100FFF747FE1B4B14F0020F60
:1034C0001A68C4F3800014BF42F0200222F02002E8
:1034D0001A60FFF771FFCBE731F001001DD1134BEC
:1034E000197010BD01F118031F2B16D80D231049B8
:1034F000DA0051F83300844204DC8B181A790D4B42
:103500001A60B5E713F1FF33F1D2B1E7CCB20A4B41
:1035100049341C60ACE7012010BD022010BD00BF83
:10352000C8850840D085084024860840F200002065
:10353000F07120004086084058860840F8B5294FB1
:103540003D7815F001054BD1274B01241C605C60D0
:103550009C60A3F59323A3F51473F8221A60092243
:10356000C3F89021152270331A6003F59B230B22B8
:1035700003F59E731A60A3F59B23A3F5F073402215
:103580001A601A687F2642F020021A60D52243F89A
:103590001C5CDE62DA61154B1878FFF74FFC144BA8
:1035A0004FF480421E60134B02201A6100F0DAF8DB
:1035B0001149022000F0B6F8032000F0D3F80E49BC
:1035C000032000F0A7F80D4B1878FFF7F5FE0C4824
:1035D000294601F05DF83B78204623433B70F8BD57
:1035E0000020F8BDF80C0020A8200D40F3000020BA
:1035F0009486084000E100E028880840F70C00208D
:103600004C00002038B503880446CBB140F2034299
:10361000934203D000230380032038BD194B187850
:103620001A4628B11B7873B1174B1B7858060AD578
:10363000822908D1137843B1134B1A78520614D457
:1036400040F203432380012038BD01F053FC01F018
:10365000EBFB8021FFF79CFD0028EDDD80B201F03F
:10366000A1FB0A4B1B699847E6E700221A70084B3A
:103670001D68FFF7C3FBFFF761FFAB06E0D0FFF764
:10368000A7FBDDE7F70C0020F80C002000732000FA
:103690004886084008B5054B1B7813B9044801F06B
:1036A0000FF8044B00221A6008BD00BFF70C002081
:1036B0004C00002034880840064B07481A68042A4A
:1036C0001FBF06490A7842F040020A7000221A60C1
:1036D00000F0F6BF2C8808404C000020F80C0020B9
:1036E00010B5094C40222046002102F057FF074B3D
:1036F00001221A605C60064B4FF480425A604FF41E
:1037000000425A6010BD00BF0000002004F00F40CE
:1037100000E100E003289EBF014B000119507047F3
:103720000000002003289EBF024B03EB0010416005
:10373000704700BF0000002003289EBF024B03EB30
:1037400000108160704700BF0000002003289FBF69
:10375000034901230A6883409CBF13430B607047F1
:1037600028F00F4003289FBF034901230A688340C4
:103770009CBF13430B60704720F00F4003289FBF8E
:10378000034901230A6883409CBF13430B607047C1
:1037900014F00F4003289FBF044B03EB0010806818
:1037A00000F0070088BF0020704700BF0000002025
:1037B000024B4FF0FF321A60704700BF04F50F4014
:1037C000014B01221A6070474CF00F40094B1A68F8
:1037D00012F4801F1A46F9D1043B196821F4803194
:1037E00019601168C903FCD41A6842F400321A60E7
:1037F000704700BF04200D4010B50A4B1A681C46E4
:1038000012F0030F0CD0084B1A685101FBD41A6850
:103810005201FCD5FEF7B0FFFFF7D8FF002323606D
:1038200010BD00BF58200D4004200D4038B5254B79
:103830001C6814F03F0413D1234B53F8243023B1F8
:10384000984768B10134052CF6D1204D2B783BB157
:10385000FEF7A2FF0446FEF7A5FF201A092801D8AB
:1038600030BF38BD002CFBD0194B1A6822F400324F
:103870001A60184A1168C902FBD4196841F48031F2
:1038800019601368DB03FCD5FEF78CFF201A0928AA
:1038900003D8BDE83840FFF799BF63280E4C02D922
:1038A0002B78022B00D00123236000F0BFFE20B153
:1038B000FFF78CFF0023236038BDFEF76DFF002863
:1038C000CED1F5E748860840CC010020F90C002055
:1038D00000200D4004200D4058200D400023064AD2
:1038E00052F82310814206D011B942F823007047E4
:1038F0000133052BF3D17047CC010020054B00228A
:103900001A60054A136943F004031361034B012253
:103910001A70704758200D4000ED00E0F90C0020AF
:1039200010B5074B4FF48032064CC3F89021C3F812
:103930009020206818B100F0C3FE0023236010BD62
:1039400000E100E0E001002030B5184B1A78431E7A
:103950003AB9174A1278122A03D1164A12784B2A1A
:1039600003D001F52011273117E04A0802F128148D
:10397000B4F1281F04D014F8015D03F8015FF7E7E4
:1039800001F5201127310023934205DA11F801597E
:103990008418E5540133F7E730BD074A914204D05B
:1039A00011F8012903F8012FF7E730BD2B0028009B
:1039B0002A0028002900280027002800024A13684E
:1039C00043F0100313607047200002401423584353
:1039D000034B044A0344B3FBF0F3013B136070470D
:1039E000FF23F4000C0002402DE9F84307460E4681
:1039F00015461C462A4ADFF8B4901368DDF820808B
:103A000043F001031360D9F80030322043F0010382
:103A1000C9F80030FEF7A2FED9F80030214A23F0A1
:103A20000103C9F8003038038158012303FA06FE68
:103A300021EA0E018150290351F802C0A3402CEA6B
:103A4000030C41F802C0203250F802C04CEA0E0EBE
:103A500040F802E0885803438B5038463146002234
:103A6000FFF70CF9284621460022FFF707F90E4B15
:103A700046EAC7021A6044EAC5025A60384631462F
:103A80000B22FFF705F9284621460C22FFF700F923
:103A9000FFF794FF4046BDE8F843FFF797BF00BF2C
:103AA00038200D4000940D402C410D4044200D4025
:103AB0000FB407B504AA52F8041B0448019200F0A1
:103AC00021F803B05DF804EB04B070475C000020FF
:103AD00070B505460C46102C07D92B686868084954
:103AE0001022984750B9103CF5E734B12B6868684C
:103AF0002246BDE8704002491847204670BD00BF0D
:103B0000D87420002DE9F04F80468FB006910792BF
:103B10000026069B1B78002B00F05F83069B1C464B
:103B200013F8012B1AB9069B9C4203D10FE0252AFA
:103B3000F5D1F8E7069BD8F80400E51A0699D8F8FD
:103B400000302A469847002840F02A832E442378E4
:103B5000002B00F042836378611C002B00F03D8352
:103B600000240A4611F8013B2B2B11D006D8202B3C
:103B700011D0232B12D144F00804F2E72D2B04D0EE
:103B8000302B0BD144F01004EBE744F00104E8E7DC
:103B900044F00604E5E744F00204E2E7A3F1310152
:103BA00008290DD8134600251A4613F8011BA1F168
:103BB0003000092811D80A2202FB0515303DF3E731
:103BC0002A2B09D1079B01321D68191D002D079171
:103BD000B8BF44F0010400E0002513782E2B1CD15F
:103BE0005178531CA1F1300009280ED8194600273E
:103BF0000A780B46A2F13000092801F101010FD823
:103C00000A2303FB0727303FF2E72A2906D1931C3A
:103C1000079A111D0791176802E013464FF0FF370E
:103C20001A786C2A09D15A786C2A02D144F080049F
:103C30000AE0013344F060040BE0682A09D15A78A5
:103C4000682A03D144F02004023302E0013344F037
:103C500040041A78642A3CD01FD8462A48D00DD890
:103C6000252A5AD003D8002A00F0B78257E0412A0B
:103C70004AD0452A53D144F4424450E0582A31D026
:103C800004D8472A4BD144F4A13448E0612A38D003
:103C9000632A44D144F4A06441E06E2A3AD007D8A4
:103CA000662A22D027D3672A28D0692A11D036E085
:103CB000732A2CD006D86F2A11D0702A2FD144F441
:103CC00040742CE0752A07D0782A28D144F4C854CF
:103CD00025E044F4245422E044F410641FE044F44A
:103CE00088541CE044F4B24419E044F4007416E033
:103CF00044F4844413E044F4024410E044F4813476
:103D00000DE044F4C1340AE044F4E13407E044F443
:103D1000806404E044F4E06401E044F4C0640133EE
:103D2000069304F4E063B3F5806F00F0AA8116D81F
:103D3000B3F5807F2BD0B3F5407F7FF4EAAE079BCD
:103D4000A04914F4804F03F104029F4818BF0846AD
:103D50000DF1330107920F461A680023C5E1B3F550
:103D6000C06F08D0B3F5E06F00F03182B3F5A06FFB
:103D70007FF4CFAE00E2D8F80030D8F804009349C1
:103D800001229847002840F00B820136C1E6002F3F
:103D9000ACBF24F01004012714F40053039304F083
:103DA000E00337D0402B17D008D8DBB1202B2AD125
:103DB000079B1A1D079293F9002017E0602B11D082
:103DC000802B20D1079B073323F0070303F1080260
:103DD0000792D3E900230AE0079B1A1D0792B3F963
:103DE000002003E0079B1A1D07921A68D317002AC8
:103DF00073F1000109DA524263EB4303CDE900237A
:103E00004FF0010933E000220023CDE900234FF0F9
:103E100000092CE0402B16D007D8CBB1202B20D1A5
:103E2000079B1A1D07921A78EEE7602B10D0802BA3
:103E300017D1079B073323F0070303F1080207920A
:103E4000D3E90023E1E7079B1A1D07921A88DBE7F5
:103E5000079B00211A1D07921B681846CDE9000137
:103E6000D5E700220023CDE900234FF0000904F438
:103E7000C053B3F5805F0CD0B3F5C05F33D0B3F55A
:103E8000006F4FD1DDE900230DF1360ACDE904239F
:103E900004E0DDE900230DF1360A15E0DDE9042335
:103EA00013433AD0DDE904010A22002301F0F6FFB2
:103EB000DDE9040130320AF8012D00230A2201F065
:103EC000EDFFCDE90401E9E752EA030125D002F054
:103ED000070130310AF8011DD10841EA4371D808C1
:103EE0000A460346F0E7384B14F4804F0DF1360ACA
:103EF000344908BF1946DDE9002352EA03000CD01B
:103F000002F00F00085C4FEA131E0AF8010D1009B9
:103F100040EA037002467346EFE70DF1360BCAEB39
:103F20000B0B03E00DF1360A4FF0000B41F60802CF
:103F300041F208035F4502EA04028CBFCBEB07079E
:103F400000279A4202D1002F08BF012741F608013D
:103F50008A4207EB0B030DD1DDE9000150EA0102B3
:103F600008D01B4914F4804F1A4A4FF0020C18BFB6
:103F70000A4602E04FF0000C62460399A1B1B9F184
:103F8000000F0AD104F0060102290AD006291249BD
:103F900004BF4FF0010C0A4606E04FF0010C0F4A37
:103FA00002E00F4A4FF0010C63449D428CBFED1AB2
:103FB000002514F0010922D1E30613D52F444D4604
:103FC0001DE000BFA3742000B4742000D67420004C
:103FD000C8742000C5742000CD742000CB7420006C
:103FE0009E73200040462946CDF80CC00092FFF792
:103FF0006FFD009ADDF80CC0002840F0D180BCF1C4
:10400000000F0DD01146D8F800306246D8F80400F1
:10401000CDF800C09847DDF800C0002840F0C0800F
:104020003C465E44102CD8F800300DD9D8F8040076
:104030006C491022CDF800C09847002840F0B080AD
:10404000103CDDF800C0EDE75CB1D8F8040065492C
:104050002246CDF800C09847DDF800C0002840F0A7
:104060009F80D8F80030D8F8040051465A4666447C
:104070009847002840F094803E44B9F1000F79D071
:1040800073E0079BD3F800A01A1D0792BAF1000F46
:1040900009D05346994699F800200133002AF9D1F6
:1040A000CAEB090903E0DFF840A14FF00609002F31
:1040B00002DBB94528BFB9464D458CBFC9EB0505A4
:1040C000002514F0010405D140462946FFF700FD04
:1040D000002865D1D8F80030D8F8040051464A4687
:1040E000984700285CD14E443EE052EA030E0ED0C1
:1040F00002F00F0E10F80EE04FEA131C01F801ED6C
:104100004FEA121E4EEA037E72466346EDE70B4607
:104110007F1A01BF3022012701F1FF3301F8012C82
:1041200003377822BD4203F8012C4FF0300203F828
:10413000022C88BFED1B4FF0230298BF002514F01E
:104140000104A3F1030903F8032C04D140462946D6
:10415000FFF7BEFC20BBD8F80030D8F80400494671
:104160003A469847E0B93E4424B140462946FFF715
:10417000AFFCA8B92E44CCE4079B012D03F1040247
:104180001B688CBF05F1FF35002514F00104079270
:104190008DF8203008D140462946FFF799FC10B130
:1041A0004FF0FF301AE02E44D8F80030D8F8040061
:1041B00008A9012298470028F2D16F1C2CB1404673
:1041C0002946FFF785FC0028EAD13E44A1E4079B7D
:1041D0001A1D1B6807921E609BE430460FB0BDE8B5
:1041E000F08F00BF93742000CF742000F8B50388CF
:1041F000064615462BB14A2B15D000230380032019
:10420000F8BD174802F0F0FA04462CB1201DA16851
:1042100002F0BCFA2468F8E7124B01221A704A2314
:1042200033800120F8BD8829FBD10D4802F0DCFA6B
:104230000446002CF3D0231D9D420ED10848214690
:1042400002F0DCFA084B62691F681A60A2691D4619
:104250000AB1E06990472F60E1E72468E9E700BF11
:10426000E4010020FA0C0020F001002010B5064BFC
:10427000002406481C7002F0B4FA2146BDE8104044
:10428000034800F005BA00BFFA0C0020E40100204A
:104290006400002070B50446E3610B4B049D1B785D
:1042A0006561A26143B1094D094B2E68201D2B6049
:1042B00002F06CFA2E6000E0A1602146BDE870407B
:1042C000044802F0AFBA00BFFA0C0020F001002051
:1042D00064000020E401002013B5034C246800941E
:1042E000FFF7D8FF02B010BDF001002010B5084B59
:1042F00004461B781BB1043000F0A8F801E0C3604D
:1043000003612146BDE81040024802F077BA00BFC1
:10431000FA0C0020E401002010B50E4C236813B9FC
:104320000D4A136010BDFEF70FFA216891E80C00EA
:104330001A44131A8A6842B192E812002144091AF9
:104340008B4228BF0B469268F5E71844024B186071
:1043500010BD00BFE8010020EC010020014800F082
:10436000AFB900BF74000020F8B5038805462BB133
:10437000592B09D0002303800320F8BD1E4A136087
:1043800059232B800120F8BD872920D08229F7D11D
:10439000194F00263C68002CF2D0204602F013FA98
:1043A00090B1E0688821224600F04AF950B9E060F7
:1043B000A3680EB1B36000E03B600023A360FFF789
:1043C000ABFFE5E7FFF7CAFF2646A468E3E70A4923
:1043D0000B680BB90B60D3E7D868904201D19B689A
:1043E000F7E70B6099680029CAD0C86890420ABFF5
:1043F00089680B469960F5E7E801002010B504468E
:10440000FFF7ACFFE3680B4A4BB113683BB1A34223
:1044100003D1094A1268DA6007E09B68F6E7064BA9
:104420001B68E36013681460A360BDE81040FFF7E9
:1044300073BF00BFE8010020F0010020024B1868A4
:10444000003018BF01207047E801002010B50B4A6A
:1044500004461368984206D18368136008E09A689E
:10446000A24203D01346002BF9D103E0A2689A6060
:10447000FFF752FF0023A360E36010BDE8010020B6
:1044800038B5836804460D469BB10A480460022093
:10449000A07304F10C0098470238012801D9832D3C
:1044A00005D120462146BDE8384000F005B801237B
:1044B000A37338BDF00100202DE9F8431C4A0446DF
:1044C000156889462B4690461A4E3768A34204D099
:1044D0000BB11B68FAE7BDE8F88334B3A37BABB13B
:1044E0000023A37345B1AC4204D02846872122465D
:1044F00002F05AF92D68F5E7A3683BB14C4505D0A9
:10450000346004F10C0083212A469847D8F8003023
:104510009C4203D12268064B05E0134623B11A687A
:10452000A242FAD122681A603760BDE8F88300BF62
:10453000F4010020F001002010B5094B00221A7090
:10454000084B1C685CB1E37B3BB101230022A373E1
:10455000E27320468221FFF793FF2468F2E710BD43
:10456000FD0C0020F4010020024B1878421C1A7048
:10457000704700BFFE0C0020064B8A221A70064AC4
:1045800000231370054A1370054A1360054A13602F
:10459000704700BFFE0C0020FB0C0020FC0C00202C
:1045A000F4010020F00100202DE9F0411A4D2B7894
:1045B0000BB1FFF7C1FF194C22783AB3184E0C210A
:1045C0003378184F5943781817F80180013347683A
:1045D000806803F01F03013A3370227068B9124BF0
:1045E0001E689EB12B780BB1FFF7A6FF30464146FF
:1045F0003A4602F0D9F83668F3E7B8F1810F04BF04
:104600000123837341463A4602F0CEF82B78207896
:104610001844BDE8F08100BFFD0C0020FC0C002018
:10462000FB0C0020F8010020F4010020024A034B9B
:1046300010781B7818447047FC0C0020FD0C0020FB
:10464000F0B50B4E3378202B0FD00A4C0C25247874
:10465000094F1C4404F01F046C4301333D19A8604A
:1046600039556A6033700020F0BD0120F0BD00BFF5
:10467000FC0C0020FB0C0020F801002038B5034C96
:10468000256802F091F8256038BD00BFF0010020D8
:1046900010B50A4609490C68234683420DD00BB178
:1046A0001B68FAE748B104600860012181738381C7
:1046B0008121BDE81040FFF7E1BF10BDF4010020EB
:1046C00038B1837B013B012B9FBF024A0123C37397
:1046D00013707047FD0C0020024610B50648536069
:1046E0000468029B11609360026014B90846FEF7EB
:1046F0006FF8002010BD00BF7803002010B5084CF3
:10470000206858B100232360816843689847236874
:1047100023B1BDE810401868FEF75AB810BD00BFBD
:104720007803002008B5FDF79FFE024B00221A70A7
:1047300008BD00BFFF0C0020024A13781843107018
:10474000FDF79ABEFF0C0020034A137823EA00000D
:104750001070FDF791BE00BFFF0C002038B5058832
:104760000446672D09D0792D2ED0002D32D1FFF7C8
:10477000FBFE1B4B18701B4B1D601B4802F0D7F84B
:10478000431C01D167231DE00A28164B07D01A6885
:104790007E2AF2DC511C1960144B9854EDE719681D
:1047A00000254A1C1A60114A0D4B555428461978A9
:1047B000FFF746FF0E4B852118682A46FFF740FF9A
:1047C00020B97923238009E0852907D1054B0022F0
:1047D0001A60D2E700230380032038BD012038BDD2
:1047E000720E0020840300207C030020810D002035
:1047F000F00100200D2810B5014615D00B4C237890
:104800002BB90B4802F07FF848B9012306E00A28CB
:1048100005D1074802F077F808B100232370054856
:10482000FFF74EFF012010BD002010BD800D0020BD
:104830007C0300208400002008B50548054980223B
:1048400002F05AF8BDE8084003480021FFF720BFF6
:104850007C030020000D002084000020054A13681E
:1048600043F004031360044B1B68906943EA002083
:1048700080B2704700700D4014700D40174A1368E5
:1048800023F00C031360164B01221A601A68012AE8
:10489000FCD1144B08221A60E322C3F8142203F55A
:1048A00005731946104B1B68DB07FBD5102000234E
:1048B0000E4A0138126802F0010243EA02034FEA8D
:1048C00043039BB2F4D1002BF0D0094A180A03F03D
:1048D000FE0310601360EF230B60704700700D4003
:1048E000A8200D4024860840648608409C86084025
:1048F00014700D4070B505880446772D30D07E2D9C
:104900003FD0002D4DD1FFF72FFE294B1870294BBA
:104910001D601D462B68284A264E52F823204AB1B6
:1049200026480021C154936880209847336801339A
:104930003360EFE7224A1370772320E01F4AD256F4
:10494000002A12DB1B4A136801331360194B1C4AFF
:104950001B6812789342F1DB1A4B1B68002BEBD0DB
:10496000184A00231360134AEFE7114A0020117818
:10497000114A52F82320FFF763FE30B97E232380CB
:1049800013E00B4B1B788B420FD10A4B0B491A6873
:104990008B5C03F07F038B540A4A13680133136066
:1049A000D0E700230380032070BD012070BD00BF4D
:1049B000730E00208C030020400000206F0E0020AA
:1049C000010E002088030020094B1A78002393422F
:1049D00004DA084951F82310814207D106490748F3
:1049E000CA5C62F07F02CA54FFF76ABE0133EEE789
:1049F000010E0020400000206F0E002094000020D7
:104A000070B505460C46164600F00EF92E6120469C
:104A1000BDE87040014902F012B900BF19752000CD
:104A2000014801F0DEBE00BF90030020014B18607A
:104A3000704700BF94030020014801F0D5BE00BFBD
:104A4000900300202DE9F04106460B480C4617461E
:104A500001F0CAFE70B18388A34208D185684DB1C8
:104A6000314622463B46AC46BDE8F041604701F086
:104A7000F8FEEFE7BDE8F0819003002010B50B4C85
:104A80000B4A616E04F138000023FFF725FCFFF7A5
:104A9000E5FE636E074AB0FBF3F101FB130104F17D
:104AA00018000023BDE81040FFF716BC9803002053
:104AB000B94A2000D14A2000044B5A6E196E5200A8
:104AC0008A4294BF5A665966FFF7D8BF9803002000
:104AD00010B500F00FFA00F0A7F900230380044698
:104AE000FFF7AAFF68B1037B5BB12388818804EBE1
:104AF00083025180C18801339180238001F0B1FE8F
:104B0000F0E720888000023080B200F04BF9238863
:104B100023B1BDE81040024800F03CB810BD00BF12
:104B2000980300209DF80030012B04D1024B9A6DB0
:104B30005A66FFF7A3BF704798030020F8B5864672
:104B40000F4616461D46074C71462046064A00F0A1
:104B50000FF8A765E66525660448BDE8F840FFF74D
:104B600065BF00BF98030020A8722000254B2000DD
:104B700070B505460C461646044AFFF741FF6E61C4
:104B80002046BDE87040024902F059B8B0722000DA
:104B90001B75200010B5044604491A2000F006FADF
:104BA0002046BDE8104001F0D4BE00BF300E00200A
:104BB00010B54378047843EA0420054B88409B5C99
:104BC000C2F1080203EA20201041C0B210BD00BFAC
:104BD0001F752000054B10B51B689847044618B197
:104BE0000120A18800F0D4F9204610BDB872200041
:104BF00038B5064B05465B6898470446A9880120EE
:104C000000F0C6F9201C18BF012038BDB872200082
:104C1000014B9B68184700BFB8722000014801F0A3
:104C2000E0BD00BF0404002003468180014819460E
:104C300001F0F8BD040400200146014801F0DEBD8A
:104C40000404002010B50446054801F0CDFD28B14C
:104C50008388A34202D001F004FEF8E710BD00BF34
:104C600004040020F8B507460A480D46164601F030
:104C7000BBFD044638B1A3680BB1284698472046CF
:104C800001F0EFFDF5E7384629463246BDE8F84029
:104C900001F066BE0804002038B5FFF79BFF05460B
:104CA000094801F0A1FD044630B1636803B198479B
:104CB000204601F0D6FDF6E725B12846BDE838408C
:104CC00001F049BE38BD00BF0804002010B50446FD
:104CD000FFF78EFF38B100F081F8034B03482146FF
:104CE0009B689847012010BD2C732000654C200064
:104CF00070B504461B200D4600F064F9064901F02A
:104D0000E3FF38B1A3691B6823B120462946BDE8FB
:104D10007040184770BD00BF300E002070B50546CA
:104D20000C461646044AFFF723FFAE612046BDE855
:104D30007040024901F083BFD07220002D75200021
:104D4000084B10B51B689847074B5B689847074BA3
:104D50005B689847064B5B689847BDE81040054B79
:104D60005B68184760722000007320002C732000DD
:104D7000D8722000C472200010B508490B88834205
:104D8000A1BF074C80B222881218A1BF181A088050
:104D900022800120B8BF002010BD00BFFC0600200B
:104DA000FE060020014B1880704700BFFC06002063
:104DB000004870470C040020014B1888704700BF62
:104DC000FC060020034A044B10781B781844C0B23C
:104DD000704700BF020E0020FE0600202DE9F041C2
:104DE0000D4B1A881D46A2B10C4B00261F880C4B98
:104DF00093F8008034B2BC4206F1010607DAFFF7EF
:104E0000E1FF084B1C44235C04F80830F2E7002360
:104E10002B80BDE8F08100BFFE060020FC060020CC
:104E2000020E00200C04002008B5FFF7CBFF014B59
:104E3000184408BD0C040020F8B50C4B07461C783C
:104E40000B4B1E88A519802D0CDC2246094901F068
:104E50002FFBFFF7E9FF3C4401463246204601F0B4
:104E600027FB00E000252846F8BD00BF020E002009
:104E7000FC0600200C04002008B5FFF7A3FF024B3E
:104E80001B88184480B208BDFC06002010B50446FB
:104E9000FFF7F2FF2318802B0FDC013880B202B23B
:104EA000002A04DB064B995C23449954F5E7054B33
:104EB000187820441870012010BD002010BD00BFDC
:104EC0000C040020020E002010B5074800213422F7
:104ED00001F064FB0024054805492044023401F038
:104EE000F0FE082CF7D110BD3A0E0020320E002043
:104EF0004C732000044A00231380044A1380044AA0
:104F00001370FFF7E1BF00BFFE060020FC06002083
:104F1000020E002038B50C460546FFF7EBFF802C4B
:104F200028BF802429462246034801F0C1FA034BDA
:104F300020461C8038BD00BF0C040020FC06002069
:104F400010B5074B03F1340253F8044B934240F879
:104F5000044BF9D1034A13680B6053684B6010BDD2
:104F60003A0E0020320E002010B5074B00F134023B
:104F700050F8044B904243F8044BF9D10B68034AB4
:104F800013604B68536010BD3A0E0020320E0020B3
:104F9000024B23F810100120704700BF3A0E00208A
:104FA000014B33F8100070473A0E002008B5044B4F
:104FB0001A3803EB400001F084FE012008BD00BF59
:104FC000320E0020024B1A3803EB4000704700BF3E
:104FD000320E00200148024901F076BE340E002056
:104FE0004C73200008B5044801F03EFCBDE80840C1
:104FF000024801F039BC00BFB0000020A40000202E
:1050000038B50E4801F040FC0446A8B10C4801F048
:105010003BFC0546206028B92146084801F048FCC1
:10502000284638BDFFF708FF05F1B601A5F8800056
:1050300005F18200FFF784FF204638BDA400002060
:10504000B000002010B504460748214601F046FC98
:1050500048B12168054801F02BFC2146BDE810400D
:10506000014801F025BC10BDA4000020B0000020C4
:1050700010B504460948214601F030FC68B12468A7
:10508000B4F880102046FFF745FF04F1820004F1D8
:10509000B601BDE81040FFF767BF10BDA4000020B7
:1050A000014BDB68184700BF2C732000014B5B6984
:1050B000184700BF00732000014B9B69184700BFD1
:1050C00000732000024BD86900B10047704700BF51
:1050D0000073200013B5044668B1006B01F084FB37
:1050E000024640B12146054B0548DB68019302B0FA
:1050F000BDE81040184702B010BD00BF007320008B
:105100000D6D200070B590F829200F4B032A88BF41
:1051100004220124DB69944005469847002808BF13
:105120000120013C444305D0FFF798FBB0FBF4F3AA
:1051300003FB140405F1080021462B46BDE870402E
:10514000024AFFF7C9B800BF00732000D550200005
:105150002DE9F04107461B208846FFF733FF484BF7
:1051600005461A78474C22B901221A70FFF776FBE0
:105170002080238813B9434B01221A8021880A20FA
:105180004B1C2380FFF704FF3F4801F02DFB044632
:1051900040B1201D294601F097FDD8B9204601F005
:1051A00060FBF4E7394801F06FFB044640B3294641
:1051B000201D01F086FD002304F12C00206384F8FB
:1051C000283084F82930E36201F00BFB2E48214699
:1051D00001F028FB206B01F03DFB072810DC2C4878
:1051E00001F052FB054698B9206B01F033FB38B94A
:1051F0002548214601F002FB2448214601F058FBD6
:1052000038464146BDE8F0410422012301F094BF35
:10521000204801F039FBA86058B3FFF7F1FE686041
:1052200018B30920AE68FFF7BBFE10B9082333722C
:1052300003E00920FFF7B4FE307286E880010D20FC
:10524000FFF7AEFE01282946206B02D101F0F9FAE2
:1052500001E001F0E7FA206B01F0C6FA85420DD1BA
:105260002046BDE8F041FFF74DBF0A48A96801F0AC
:105270001FFB2946064801F01BFBB5E7BDE8F0819E
:105280001B0E0020F00C002074050020C800002038
:10529000D4000020BC00002008B5054801F0E4FA65
:1052A000044801F0E1FABDE80840034801F0DCBA27
:1052B000D4000020BC000020C80000202DE9F047E9
:1052C0000D4614468B680746106BD3F80090D3F850
:1052D000048092F8286001F091FA6868FFF7B2FE46
:1052E000A968144801F0E4FA1348294601F0E0FAED
:1052F000206B01F079FA40B1002384F8283084F85B
:1053000029302046FFF7FEFE0BE004F10800FEF70F
:10531000EDFF0A48214601F071FA0948214601F0E3
:10532000C7FA484641463A463346BDE8F04701F0E1
:1053300003BF00BFBC000020D40000207405002083
:10534000C8000020014B1888704700BFF000002003
:105350002DE9F041012986B006460F46144640F378
:10536000868003A901F073FE03AB03CB1B88206189
:1053700023839DF8113061610BB1B51C02E0B37855
:10538000F51CA37603A801A902AA01F024FD9DF84B
:105390001380B8F1000F23D0029B23B16A7815F86F
:1053A000023B03EB0223B8F1020FA38309D120468D
:1053B000314901F086FC6B78237015F8023B63706D
:1053C00014E0B8F1030F11D105F108021346611E74
:1053D00013F8010DAB4201F8010FF9D1154605E0B4
:1053E0002046254901F06DFCA4F81C809DF815802D
:1053F000B8F1000F2BD0019B53B16A7815F8023B2E
:1054000003EB0223029A9BB2E3831AB9A38301E060
:10541000A38BE383B8F1020F0AD104F10800164907
:1054200001F04FFC6B78237215F8023B637215E0B4
:10543000B8F1030F12D108352A46E31D04F10F011C
:1054400012F8010D03F8010F8B42F9D106E004F1C7
:105450000800094901F035FCA4F81E80AE1BBB1BF7
:10546000E363A563BE42D4BF3046002000E00020C5
:1054700006B0BDE8F08100BF4C73200030B591B09C
:105480000546FFF75FFF4FF6FF73984202D14FF0DA
:10549000FF3081E040226846002101F07FF83F4B59
:1054A0001A782AB901221A70FFF7D8F93C4B187004
:1054B0001420FFF775FD8DF810001320FFF770FD25
:1054C0008DF81200FFF786FD044628B100238DF801
:1054D00013308DF8153006E00B20FFF761FD8DF8D5
:1054E00015408DF81300002301248DF814308DF839
:1054F0001840ADB10A20FFF753FD28B10A20FFF78D
:105500004FFD8DF81A000BE0254B1A7802B91C707C
:1055100019780A204A1C1A708DF81A10FFF738FD06
:1055200002248DF81940FFF70DFFADF81C00FFF7BE
:1055300051FD38B1FF238DF817408DF800308DF8FC
:10554000013008E01B20FFF73DFD0146684601F0F1
:10555000B8FB8DF81740FFF7F5FEADF81E001A20D6
:10556000FFF730FD014602A801F0ABFBFFF75CFC42
:105570000E90FFF721FC0F90684601F0D5FC044621
:105580004DB1FFF783FC002881D0FFF711FC0146E5
:10559000684601F013FD204611B030BD270E0020F3
:1055A000260E002070B5FDF7CFF8044600261A201D
:1055B0000E4DFFF707FD0C2303FB0655294601F0AE
:1055C00083FB78B10A20FFF7EBFC2B7A834201D0F2
:1055D000002070BD6868201AB0F5206F8CBF0020D5
:1055E000012070BD0136102EE1D1F1E7D805002071
:1055F00070B500251A20164CFFF7E4FC0C2101FBC6
:10560000054101F061FB6B1C10B9102B1D46F1D157
:105610000C225E1E02FB0343183B0C3B46B103F118
:10562000180503F10C0207CA013E85E80700F4E7FC
:105630000A20FFF7B5FC2072FDF786F860601A209B
:10564000FFF7C0FCBDE870400146014801F039BBDE
:10565000D80500200A4B13B500241C70094B1C8090
:10566000FDF7A0F8009400F500610122064B074801
:10567000FFF732F8064B01221A7002B010BD00BFCE
:105680002B0E0020F20C0020455B2000A00600201D
:105690002F0E0020074B82B01B784BB1064B1A78B7
:1056A00032B901221A70054B1B6A019302B01847E8
:1056B00002B070472F0E00202B0E002060722000D9
:1056C000094B82B01B786BB1084B1A7852B1084A6B
:1056D000127802F0FF012AB91970064B5B6A019338
:1056E00002B0184702B070472F0E00202B0E00208A
:1056F0002E0E00206072200008B5FFF7E1FF024B7C
:1057000000221A6008BD00BF9C060020044B1B78D5
:1057100023B9044B1B680BB9FFF7D2BF704700BF1A
:105720002D0E00209C060020094B00221A70094B08
:10573000C2B21A7082B0084A084B18B10121117028
:105740001B6A01E05B6A1070019302B0184700BF4A
:105750002F0E00202E0E00202B0E00206072200045
:1057600037B50B4B1A7802F0FF056AB901241C709B
:10577000084B1D70FDF716F8009500F500612246F4
:105780000548064BFEF7A8FF012003B030BD00BF5F
:105790002F0E00202E0E0020A0060020455B2000CA
:1057A00037B50A4B05461B780C466BB1FCF7FAFF80
:1057B000231A022B48BF841C00230093284621464D
:1057C0000122034BFEF788FF03B030BD2F0E0020EF
:1057D000455B200013B5234B1A681C460AB9FFF736
:1057E0006FFFFFF7E9FA032839D0FFF745FB0028E0
:1057F00035D01D4B9B689847002830DBFFF7DCFA5B
:1058000068B3FFF739FB50B31B20FFF7DBFB1749E9
:1058100001F05AFA68B11320FFF7C2FB206068B1AB
:10582000FFF738FF12480421124A0023FEF754FD07
:1058300009E0FFF7CFFB0028EDD110E0FFF740FFB4
:105840000B48FEF753FDFFF7ADFE40B9FFF7D0FE62
:10585000094BDB68019302B0BDE81040184702B065
:1058600010BD00BF9C06002020732000300E0020D9
:10587000AC060020F9562000D87220002DE9F04F28
:10588000744E89B03378049023B9734B1B780BB9ED
:105890000525DBE0FFF7F0FA0028F9D06F491A2060
:1058A000FFF784FBFFF796FB07460C20FFF778FB1A
:1058B00098B1FFF7E1FA8246694C4FF0010965683B
:1058C000FFF776FA5146A847664DA36985F8009020
:1058D00001939847A84678B909E001210B20FFF70A
:1058E00057FB614B5B6898470028E2DAD0E7E36931
:1058F00002939847054618B1002388F8003085E0E8
:10590000FFF7DEFE337886F80090DBB20393049B4A
:1059100063BB4FF00609FCF745FF8346FFF7BAFE6D
:10592000FCF740FF6FF00303CBEB0303C342F7D454
:1059300063699847834648B9FFF7C2FE88F800B00C
:10594000FFF7BEFE9DF80C3033705FE0FFF7B8FE46
:10595000FCF728FF8346FCF725FF6FF00F03CBEB26
:105960000303C342F7D4B9F10109D4D1003718BFFA
:1059700001270FB9FFF78EFE0A20FFF711FB5FFA30
:1059800080FBFDF7A9F8FCF70DFF8146FCF70AFF45
:10599000364BC9EB0303C34244D5FDF79DF8002FF6
:1059A00036D0A36850469847FCF7FCFE02460592A5
:1059B000FCF7F8FE059A6FF00C039B1AC342F6D46D
:1059C000002FE3D1019B984770B3FCF7EBFE8146B3
:1059D000FCF7E8FE6FF01403C9EB0303C342F7D4EE
:1059E000236907A803219847032826D19DF81E3074
:1059F0005B4522D100244FF00109FFF761FE9DF8BD
:105A00000C303370002388F80030D4B101251DE03C
:105A1000049B002BC5D0FCF7C5FE154BC9EB030357
:105A2000C342BED4002409E0029B98470028CCD191
:105A3000636998470028C8D0A8E701244FF00009FF
:105A4000DBE71FB9994514BF1D460225284609B05A
:105A5000BDE8F08F2F0E00202E0E0020300E00200B
:105A6000607220002D0E002020732000B0F7FFFF91
:105A7000DEFDFFFF2DE9F047074688461546002A60
:105A800058D02D4B1B683BB15068FFF7F1FA01224B
:105A900038464146134621E01646304600F0E1FE06
:105AA00004467068FFF7E4FA0C20FFF779FA00BBB0
:105AB0001CB113200121FFF76BFA20491A20FFF7D0
:105AC00075FA01210B20FFF763FA1D4B5B689847BD
:105AD000002807DA3846414605220123BDE8F04791
:105AE00001F02ABB0C200121FFF752FA706801F087
:105AF000F9F82646002CD0D1284600F0B2FE064622
:105B00006868FFF7B5FA1320FFF74AFA8146204686
:105B1000FFF7B4FE032804460CD03846414622461F
:105B2000012301F009FB2CB926B135460124B9F156
:105B3000000FE1D1BDE8F0879C060020300E002068
:105B40002073200040F2B1122DE9F3476B4C8046E0
:105B50002388934218D0B3F5D97F07D2002B40F0A9
:105B6000BC80FCF71FFE664B186008E040F2E312B1
:105B7000934235D040F20222934240F0AE80614A17
:105B800000231370604A02E05F4A137801331370F8
:105B90005D4B1B78012B16D85C4B1A78002A40F01D
:105BA000A3805B4A1268002A40F09E801B780BB9E4
:105BB000FFF770FD574B5B699847002840F09280D3
:105BC000504B01221A704F4B1B78002B71D0FCF701
:105BD000E9FD514B514A186000231370504A13706D
:105BE0004A4BDFF848911B78002B4BD199F80030D5
:105BF000002B47D0FCF7D6FD474B1A686FF4CC73E7
:105C00009B1AC3423ED5434D444F6B69984718B128
:105C10003B7801333B7000E03870414ED5F818A056
:105C2000337801333370D04708B100233B703B78A1
:105C3000052B02D9FFF76AFD24E033780A2B05D93A
:105C4000D04718B9EB6998470028F3D0EB6998471B
:105C5000C0B9344B1B7893B1D8F80050FCF7A2FDC3
:105C600005F114062D1A15F1120F48BF861C0023EA
:105C700000934046314601222B4BFEF72DFD40F2AA
:105C8000E3132BE099F800309BB1224DAB699847A4
:105C900048B1FCF787FD204B1A686FF4CC739B1A50
:105CA000C34204D505E0EB6998470028F1D1FFF71E
:105CB0002DFD134D2B6803F500632B60FCF772FD7F
:105CC0002B68C3F1A003C3427FF559AF2968404652
:105CD000FFF766FD40F2022300E00023238002B0BC
:105CE000BDE8F087FFF712FDFCF75CFD00F1100145
:105CF0004046FFF755FD40F2B113EFE7F20C0020EC
:105D0000980600202A0E0020280E00202D0E0020CC
:105D10009C06002060722000CC0600202C0E002083
:105D2000290E00202F0E0020455B20002B0E0020A6
:105D300008B5024B1B689847023008BDF47220007A
:105D400038B50C4B9B689847041E02DA4FF0FF30C1
:105D500038BDFFF769F803780546002BF6D102201D
:105D6000FFF70AF80028F1D06878FFF71BF8A01CAD
:105D700038BD00BFF472200070B50220FFF786F82E
:105D800010B94FF0FF3070BDFFF712F80025057015
:105D90000446FFF711F86070FFF76EF80446FFF74E
:105DA000C7FF20442A2812DCC0F12B00C4B2FFF741
:105DB0003BF80646FFF700F829462246304400F03B
:105DC000EDFBFEF7F9FF204480B2FEF7EBFF044B3A
:105DD0005B689847041ED4DBFFF700F8A01C70BD79
:105DE000F4722000014B9B68184700BFC47220006A
:105DF00070B505460C4614200121FFF7C9F8034B86
:105E000028462146BDE870409B681847D87220009C
:105E1000832910B5044602D1144800F035FF2388C9
:105E20002BB1412B11D000232380032010BD104A39
:105E30000E489221FEF772FF0E4A136843F00203E8
:105E400013600D4BFF221A6006E00C4800F0A7FC1F
:105E500048B10B4800F020FC08484FF4A06100F066
:105E600095FC41232380012010BD00BFD0060020F7
:105E70004473200000A40D4008A00D40EC06002053
:105E800000E1F50508B51B20FFF79CF8BDE80840C8
:105E9000014900F019BF00BF4C73200053B94AB943
:105EA000002908BF00281CBF4FF0FF314FF0FF3022
:105EB00000F03CB882B0EC462DE9005000F01EF82E
:105EC000DDF804E002B00CBC704700BF2DE9F041E2
:105ED000069C904606460F461D4600F029F808FB32
:105EE00001FCA8FB002300FB05C5B21A2B4467EB9D
:105EF00003038646C4E90023BDE8F0812DE9F84399
:105F0000089E1746804689461D4600F067F900FB4B
:105F100005F3A0FB074507FB0137B8EB04043D443C
:105F200069EB0505C6E90045BDE8F883704700BF89
:105F300000292DE9F043C0F2A8800026002BC0F212
:105F40009E8081468E4690469C46174604460D46E6
:105F5000002B3DD18A4259D9B2FA82F33BB1C3F149
:105F600020029D4020FA02F29F4015439C40390CCC
:105F7000B5FBF1F01FFA87FE01FB10550EFB00F395
:105F8000220C42EA0545AB4209D9ED1900F1FF3276
:105F900080F00B81AB4240F2088102383D44ED1A9B
:105FA000B5FBF1F301FB13550EFB03FEA4B244EA6B
:105FB0000545AE4508D9ED1903F1FF3280F0F780B1
:105FC000AE4540F2F480023B43EA0043002203E086
:105FD0008B420FD900221346341C18BF01246042A3
:105FE0004FF0000565EB45015840514000196941EB
:105FF000BDE8F083B3FA83F2002A40F089808B4237
:1060000002D3804500F2E2800123E5E712B90123C3
:10601000B3FBF2F7B7FA87F8B8F1000F3BD1ED1BED
:106020004FEA174C1FFA87FE0122B5FBFCF00CFB70
:1060300010550EFB00F3210C41EA0545AB4207D990
:10604000ED1900F1FF3102D2AB4200F2C3800846E5
:10605000ED1AB5FBFCF30CFB13550EFB03FEA4B2CB
:1060600044EA0545AE4507D9ED1903F1FF3102D2E7
:10607000AE4500F2AD800B4643EA0043ACE7524226
:106080006FEA060663EB43035BE7404261EB4101C5
:106090004FF0FF3652E707FA08F7C8F1200225FA59
:1060A00002F34FEA174CB3FBFCF11FFA87FE0CFB1F
:1060B000113324FA02F205FA08F50EFB01F92A431E
:1060C000100C40EA0343994504FA08F407D9DB1998
:1060D00001F1FF3078D2994576D902393B44C9EBBA
:1060E0000303B3FBFCF00CFB10330EFB00F592B284
:1060F00042EA03439D4207D9DB1900F1FF325FD228
:106100009D425DD902383B445D1B40EA01428CE769
:10611000C2F1200328FA03F10CFA02FC41EA0C0C4C
:106120004FEA1C402EFA03F1B1FBF0F51FFA8CF791
:1061300000FB151129FA03F30EFA02FE07FB05F91D
:1061400043EA0E0E4FEA1E4343EA0141894508FA2D
:1061500002F808D911EB0C0105F1FF3332D2894561
:1061600030D9023D6144C9EB0101B1FBF0F300FB02
:10617000131107FB03F71FFA8EFE4EEA014E774517
:1061800008D91EEB0C0E03F1FF3117D2774515D954
:10619000023BE64443EA0543A3FB0889C7EB0E0E26
:1061A000CE4509D305D0002216E71046F7E6134680
:1061B0000AE794404445F6D2013BF4E70B46E9E791
:1061C0001046A1E71D46CEE7014688E7134603E7E0
:1061D000023B51E702383D443AE700BF2DE9F04366
:1061E000002B44D18A42154604464FD9B2FA82F7B1
:1061F0000E464FB1C7F12003B94020FA03F602FA68
:1062000007F50E4300FA07F42F0CB6FBF7F01FFA60
:1062100085FE07FB10620EFB00F1260C46EA0243E6
:10622000994209D95B1900F1FF3280F0EE80994262
:1062300040F2EB8002382B44591AB1FBF7F307FB0D
:1062400013110EFB03FEA4B244EA01418E4508D9A6
:10625000491903F1FF3280F0DA808E4540F2D78091
:10626000023B43EA004000263146BDE8F0838B4202
:1062700047D8B3FA83F6002E48D18B4202D382422C
:1062800000F2CF8001203146BDE8F08312B901252C
:10629000B5FBF2F5B5FA85FCBCF1000F78D1491BCE
:1062A0002F0C1FFA85FE0126B1FBF7F007FB10113A
:1062B0000EFB00F2230C43EA01418A4207D9491937
:1062C00000F1FF3302D28A4200F2BC801846891ADC
:1062D000B1FBF7F307FB13110EFB03FEA4B244EA74
:1062E0000142964508D9521903F1FF3180F091809F
:1062F000964540F28E80023B43EA00403146BDE8BD
:10630000F083002630463146BDE8F083C6F1200414
:1063100022FA04F5B3402B4321FA04F74FEA13485D
:10632000B7FBF8FC1FFA83F908FB1C7720FA04FE80
:1063300001FA06F509FB0CF44EEA05054FEA154E85
:106340004EEA0747BC4202FA06F204D9FF180CF1E4
:10635000FF3168D38C463F1BB7FBF8F408FB14777A
:1063600009FB04F9ADB245EA0741894504D9C918CA
:1063700004F1FF355DD32C4644EA0C44A4FB022310
:10638000C9EB0101994249D345D0204600266BE76D
:10639000CCF1200405FA0CF521FA04F32A0CB3FB26
:1063A000F2F61FFA85FE02FB163820FA04F701FA0E
:1063B0000CF10EFB06F90F433C0C44EA08439945E7
:1063C00000FA0CF407D95B1906F1FF3138D2994570
:1063D00036D9023E2B44C9EB0303B3FBF2F002FBB8
:1063E00010330EFB00F1BFB247EA0343994207D9CD
:1063F0005B1900F1FF3721D299421FD902382B4493
:106400001746591A40EA06464EE7104614E7134667
:1064100027E70B4670E7B0409042B6D2601E0026D8
:1064200022E7304620E7BC4294D9ACF1020C1F446D
:1064300091E789459FD9023C19449DE73846DFE73B
:106440000E46C8E70238294441E700BF032A70B46A
:1064500026D940EA01039B0711D004780D78AC429D
:1064600022D10244431C05E013F8014B11F8015FEF
:10647000AC4219D19342F7D1002070BC70470C4652
:1064800003461E6825681846AE42214603F1040300
:1064900004F1040404D1043A032A18462146F0D832
:1064A000002ADAD11046E8E7601B70BC704700BFD5
:1064B000844641EA000313F0030349D1403A23D351
:1064C0000B6803604B6843608B688360CB68C36074
:1064D0000B6903614B6943618B698361CB69C3615C
:1064E0000B6A03624B6A43628B6A8362CB6AC36244
:1064F0000B6B03634B6B43638B6B8363CB6BC3632C
:1065000040304031403ADBD230320BD30B6803606D
:106510004B6843608B688360CB68C3601030103178
:10652000103AF3D20C3205D351F8043B40F8043B47
:10653000043AF9D2043208D0D2071CBF11F8013B4B
:1065400000F8013B01D30B8803806046704700BF11
:10655000082A13D38B07B1D010F00303AED0C3F1D8
:106560000403D21ADB071CBF11F8013B00F8013B02
:10657000A4D331F8023B20F8023B9FE7043AD9D379
:10658000013A11F8013B00F8013BF9D20B78037096
:106590004B7843708B7883706046704770B4840783
:1065A00046D0541E002A41D0CDB2034602E0621EFE
:1065B000E4B3144603F8015B9A07F8D1032C2ED9F3
:1065C000CDB245EA05250F2C45EA054519D92646E1
:1065D00003F11002103E0F2E42F8105C42F80C5CE2
:1065E00042F8085C42F8045C02F11002F2D8A4F10F
:1065F000100222F00F0204F00F041032032C134497
:106600000DD91E462246043A032A46F8045BFAD8FE
:10661000221F22F003020432134404F003042CB1BD
:10662000C9B21C4403F8011BA342FBD170BC7047E4
:1066300014460346C2E700BFFEE708B5FBF726FE97
:1066400073B50646002425463046FEF775F800234C
:106650000193019BAB4203DA00BF019B0133F7E7D3
:106660003046FEF771F800230193019AC5F5C8730F
:106670009A4203DA00BF019B0133F5E70134B4F518
:10668000487F05D0B4F5C87FDDDDC4F54875DBE78C
:1066900002B070BDFBF7ACBF80B2FCF75FB8FCF78F
:1066A00007B870470020FCF7E7B80120FCF7E4B812
:1066B0000020FCF7A5BA0120FCF7A2BA0220FCF7E3
:1066C0009FBA0320FCF79CBA10B50C46FCF7BEFC41
:1066D0002046BDE81040FCF7EBBC10B50446002096
:1066E000E1B2FCF7DFF9204610BD70B5054604465F
:1066F0004618601B44B1237833B1B44204D0184625
:106700000134FFF7EAFFF4E770BD38B50546002411
:1067100015F8010B20B1FFF7E0FF0134002DF7D190
:106720000A20FFF7DAFF204638BD0020704701201D
:10673000704710B5044600210E203022FCF7B2FA53
:1067400084B1012C0CD142F210730011A0F28E50D2
:1067500058432A2390FBF3F000F5C340283010BDC6
:106760004FF0004010BD08B51AB108461146FFF7BA
:10677000BCFF002008BD10B5041F54F8040F18B169
:106780000021FDF785FFF8E710BD704710B50446FE
:1067900000F012F82046BDE81040FDF72FBEC0689B
:1067A000B0FA80F040097047837BDB0701D5FDF725
:1067B00067BE7047FFF775BF10B541600446FBF731
:1067C000C3FF206010BD10B50446FBF7BDFF236872
:1067D000C3F101030344606898422CBF00200120EC
:1067E00010BD00230360704700687047006800B95F
:1067F000704703680BB11846FBE77047036810B594
:106800007BB100228B4207D10B680AB9036000E01C
:10681000136000230B6010BD1C681A460CB12346A0
:10682000F0E710BD38B505460C46FFF7E7FF00233B
:1068300023602846FFF7DAFF08B92C6038BD0460F2
:1068400038BD38B504460D46FFF7D8FF23682B60E6
:10685000256038BD0368002013B101301B68FBE7D9
:10686000704700B10068704710B504460021628887
:106870004068FFF793FE23886288A06800215A438E
:10688000BDE81040FFF78ABE10B5418800238B4257
:106890000CDA4268D418D25C32B901222270018825
:1068A000826801FB032010BD0133F0E7002010BD1A
:1068B00030B5826844880023A3420DDA8A4207D1AA
:1068C0004168CA5C0AB1013ACA544268D05C30BD22
:1068D000058801332A44EFE7FF2030BD82689142EA
:1068E00008D34388008800FB032081422CBF00208E
:1068F00001207047002070470023013A01600271B7
:1069000043718371704710B5427983790479D31A42
:106910002340A3421FBF0368995443795A1C1FBFE9
:10692000037913404371012008BF002010BD837913
:1069300042790179D21A0A421FBF0268D25C013340
:106940000B401ABF837110464FF0FF307047FEF7BF
:1069500073B9FEF7BBB903691B6803B118477047E9
:1069600003695B6803B1184770477047F7B50F4676
:10697000FEF75AFA03880446ADF80030BDF800600F
:10698000FEF71AFAB300023383420FD8023400250F
:10699000B5420BDA54F8040B01350190BDF8041030
:1069A0003846BDF80620FEF74DF8F1E703B0F0BD1C
:1069B00043695B6803B11847704713B504461A2052
:1069C000FEF700FB014601A800F07BF963691B6834
:1069D00013B1204601A9984702B010BDFFF7B7BF19
:1069E000831C0020023313F8042C1AB113F8032C73
:1069F0001044F7E77047072B2DE9F8430746884610
:106A000014461D4607DC084611461A46FEF7D0F824
:106A10003870BDE8F8834FEAE309AAB1002608EB15
:106A2000060021460822FEF7C3F8B85501364E4548
:106A3000F5D115F0070216D008EB06002146FEF747
:106A4000B7F8B855BDE8F88318F804303B55013461
:106A50004C45F9D115F0070205D008EB04000021E0
:106A6000FEF7A6F83855BDE8F8832DE9F341FEF7A7
:106A7000DBF904460220FEF77FF908B9002044E064
:106A80006078237803EB002080B2FEF7DBF8054640
:106A90000028F3D0FEF7C8F98046287B10F00703E2
:106AA00018BF012303EBD000FEF766F90028E5D0FC
:106AB000AC680026023414F8023C2BB3192B14F8EE
:106AC000017C08EBE60106F0070209D901A83B4664
:106AD000FFF791FF14F8020C01A9FEF767FA10E026
:106AE0000023ADF8043001A83B46FFF784FF9DF872
:106AF00005109DF8043014F8020C43EA0121FEF75A
:106B000047FA3E440234D6E7284602B0BDE8F08199
:106B1000072BF0B506DC1278C1F11001CB1A02FA8E
:106B200003F322E0DD1049B3571E00EB050E70455C
:106B30000FD017F8014FC1F10806B4400678C4F32E
:106B4000072C4CEA0606067010F8016F34430470F7
:106B5000EDE713F007042AD0535DC4F10802114495
:106B60000B41DBB2C4F11004A3400278C3F3072148
:106B70000A430270427813434370F0BD545C44549E
:106B80000131A942FAD113F0070310D0525CC3F1CE
:106B900008052A41C3F1100302FA03F3425CC3F370
:106BA00007252A4344184254627813436370F0BDAA
:106BB0002DE9F743047B054614F0070318BF0123B2
:106BC00003EBD404A01CFEF761F998B3FEF7F0F8CC
:106BD000AB880370AB881B0A4370FEF7E9F8871C8B
:106BE000224638460021FFF7D9FCAC680025023464
:106BF00014F8020CE8B1192814F8016C07EBE50948
:106C000005F0070805D9FEF7DDF94146024648467A
:106C100009E0FEF7C5F98DF80400000A8DF80500BB
:106C20004146484601AA3346FFF772FF3544023415
:106C3000DEE7012003B0BDE8F083FDF7EFBF38B514
:106C40000D46FDF7FFFF044620B185602846FDF79D
:106C5000DFFF207338BD10B5FEF7C4F9FEF74AF91F
:106C6000FDF7DEFEFFF7E9FFBDE8104002204FF41C
:106C700080714FF4F0524FF4E123FDF75FBF836959
:106C80005B6803B118477047FFF7A8BE0EF00F000E
:106C90000D2808BF00F00EB800982DE9F04F00F164
:106CA000240181F3098890E8F08F0EF00F000D2881
:106CB00018BF7047EFF3098020E9F04F0990BDE855
:106CC000F08F0B880380704708B50222FFF7BEFBE8
:106CD000B0FA80F0400908BD016801F18200B631C8
:106CE000FEF72EB910B5046804F1820004F1B60174
:106CF000FEF726F92046FEF79FF8A4F8800010BDA5
:106D0000036803EB4101B1F8820070472DE9F041BF
:106D10000E461746044600285BD0006BFFF764FD63
:106D2000054668B10A216868FFF7EAFF80460A2035
:106D3000FEF736F9804505D02846FFF792FDEFE7CC
:106D4000BDE8F081AB68002B43D0032E3AD8DFE8D2
:106D500006F002190B4094F8282000203A4484F8E9
:106D6000290084F828202EE0002284F8292094F8B5
:106D700028203A44D2B284F828201B7A934219D8AA
:106D8000022020E094F829203A44D2B2052A83BF99
:106D9000002284F8292094F8282084F8292084BF30
:106DA000013284F8282094F828201B7A9A4201D3D3
:106DB000012008E02046FEF7A5F96868BDE8F0412B
:106DC000FFF78ABF304629462246BDE8F041FEF76C
:106DD00075BABDE8F08130B5002853D0037A022B94
:106DE0002FD1C479437A057914B99BB9012D0DE0EF
:106DF0001BB9002D40D1012014E0032C0CD1032B32
:106E000003D1002D3CD1012017E0022B14BF00203C
:106E1000012006E0204604E0022CF6D1181C18BF21
:106E2000012005BB0CB1022C05D1023B012B8CBF0C
:106E3000002301231BE0032C15D19C1E63426341F8
:106E400015E00378022B10D003792BB9437A13F0A5
:106E5000030318BF012300E00023C07910F00300F2
:106E600018BF012003E0002301E00020034601B128
:106E70000B603AB1106030BD032CCDD11846D0E77D
:106E80000020CEE730BD37B504460D460846062241
:106E90000021FFF783FB637DD9075CBF01232B70C3
:106EA000237E012B0DD8E37D9A0708D0637E9B07D4
:106EB00005D0E28BA38B9A4201D1012300E000238D
:106EC000237504F11000694601AAFFF784FF009BB7
:106ED0000BB10223EB70019B0BB102236B70E37DBE
:106EE00003F00303022B03D0032B0CBF0823002362
:106EF000AB70637E03F00303022B03D0032B0CBFA4
:106F0000082300232B7103B030BD02280CBF0223DD
:106F100008230B448B4205D013F8012DFF2AF9D02A
:106F2000002070470120704707B56946FFF7ABFFA7
:106F30009DF800009DF80130023018449DF80230A1
:106F40009DF8032018449DF80430104403449DF834
:106F50000500184403B05DF804FB8378427803F021
:106F600001031B0102F0010243EAC202037830B5BB
:106F700003F0070342EA0304C37803F0010344EA81
:106F80004312037903F0010342EA83130B7044793F
:106F9000457A827904F00104C37902F0010244EADF
:106FA000851503F0030345EA420444EA8302037AA9
:106FB00003F0030342EA03134B7030BD73B504467C
:106FC0000D466946FFF75FFF04F110002946FFF701
:106FD000C4FF9DF80030012B02BFA37E0322AB70DB
:106FE0009DF8013018BF0222022B08D1A18B531C3F
:106FF000A954A18BDBB20232090AD2B2E9549DF83E
:10700000026031469319DBB2581AC0B219B1013986
:10701000635C2B54F6E79DF80320022A08D1E18B2C
:107020005A1CE954E18BD2B20233090ADBB2A954EB
:107030009DF8046032469819C0B2811AC9B222B1D3
:10704000013AA018007A6854F5E702B070BD0278E2
:10705000437802F007000870C2F3C0004870C2F322
:1070600000108870C2F34010C2F380120A7103F05E
:1070700001024A71C3F340028A71C3F38102CA71EB
:10708000C3F301129B09C8700A724B72704730B586
:1070900091B0FDF7C9FE0446FDF78EFE6A46014633
:1070A0002046FEF755F9044610B94FF0FF303BE09B
:1070B000FDF762FE0028F8D014209DF81010FDF7AF
:1070C00067FF9DF81730ABB1BDF81C50FEF73AF9D9
:1070D000854205D04FF6FF73BDF81C209A42E4D1DB
:1070E0009DF817006946FFF710FF18B91B20694685
:1070F000FDF75CFF02A91A20FDF758FF13209DF849
:107100001210FDF745FF9DF815300A2013B99DF8C0
:107110001A1001E04FF6FF71FDF73AFF0E209DF8BF
:107120001A10FDF735FF204611B030BD0120FEF7E3
:10713000A5B90020FEF7A2B910B5044630B1084643
:1071400011461A462346BDE81040184710BD0820D6
:10715000704770B5054600200C46FEF78FFB0328EC
:10716000024606D028462146BDE870400123FFF7BD
:10717000E3BF70BD70477047A673200085242000D0
:10718000E1242000000000000100000001000000D8
:107190000100000000C0004000410D400000000060
:1071A000080000002C00000000000001FFFFFFFFAE
:1071B00005000000020000000200000002000000C4
:1071C00000D0004008410D4002000000080000000F
:1071D0002C00000001000303FFFFFFFF060000007A
:1071E000417420004574200054742000587420001D
:1071F00007000000FF00000005000000ED00000097
:1072000003000000D500000001000000C5000000E0
:1072100000000000B6000000FFFFFFFFB00000000C
:10722000FDFFFFFFA1000000FBFFFFFF910000003A
:10723000F9FFFFFF88000000F7FFFFFF720000006A
:10724000F5FFFFFF62000000F3FFFFFF58000000A2
:10725000F1FFFFFF42000000E8FFFFFF0000000019
:107260003D3520004D302000B1302000C96620009F
:1072700091312000852E2000C12E2000D92E200023
:10728000D12D2000FD2D2000E92E200055342000B6
:1072900075322000613120007F74200033672000A8
:1072A0002B6720002F6720006D6920006B6920008C
:1072B000BB692000B16920006B6A2000B16B20001F
:1072C000E169200028752000576C2000994C2000AF
:1072D000F14C20007F6C2000337520009952200073
:1072E00051512000A1502000AD502000B950200085
:1072F000C5502000337120002D7120008F702000B8
:10730000387520005556200053712000755A200012
:10731000D557200061572000295720004F712000C9
:10732000315D2000795D2000415D20004375200023
:1073300075712000F15D2000E55D2000E000002077
:107340000000000077712000855E20000000436F80
:107350006E74696B6920332E78004F70656E4D6FC7
:1073600074652D4343323533380052696D652063AF
:107370006F6E6669677572656420776974682061ED
:107380006464726573732000253032783A002530CA
:1073900032780A004E65743A20004D41433A20008D
:1073A0005244433A2000427574746F6E0043433276
:1073B0003533383A2049443A2030782530346C78D7
:1073C0002C207265762E3A20504725642E25642C99
:1073D00020466C6173683A20256C75204B69422CFD
:1073E000205352414D3A20256C75204B69422C2088
:1073F0004145532F5348413A2025752C204543439E
:107400002F5253413A2025750A53797374656D20C4
:10741000636C6F636B3A20256C7520487A0A492F9C
:107420004F20636C6F636B3A20256C7520487A0A95
:1074300052657365742063617573653A2025730A1C
:1074400000504F520045787465726E616C20726511
:107450007365740057445400434C44206F7220738A
:107460006F6674776172652072657365740063631B
:107470003235333820524620647269766572004F87
:107480006E2D436869702054656D70657261747506
:1074900072650030303030303030303030303030A5
:1074A0003030303031323334353637383941424379
:1074B000444546003031323334353637383961622D
:1074C00063646566003078003058002D002B00287A
:1074D0006E756C6C290025002020202020202020A3
:1074E00020202020202020204374696D65722070A8
:1074F000726F63657373004576656E742074696D91
:1075000065720053657269616C2064726976657298
:107510000053656E736F72730000001A1000000054
:1075200080C0E0F0F8FCFEFF52696D65001B101A88
:1075300010000043534D4100436F6E74696B694DF9
:107540004143006E756C6C736563004578616D70C6
:0B7550006C6520756E69636173740048
:10755C0078712000987220000000000000000000EC
:10756C006E742000053620000000000067672000C4
:10757C000000000000000000E8742000ED41200035
:10758C000000000000000000F77420006943200098
:10759C000000000000000000037520005D47200083
:1075AC00000000000000000011752000F5482000CC
:1075BC0000000000040008000B0E00208C040020CA
:1075CC00BE000800030E0020000700200C0008007D
:1075DC001C0E00201405002034000200240E002094
:1075EC00AC0400200C000800130E002078050020CD
:1075FC00000000004B752000115E20000000000010
:04760C00CDAB011AE7
:0876100020E9FF7F01000000EA
:020000040027D3
:10FFD400FFFFFFF60000000000202000FFFFFFFFEE
:10FFE400FFFFFFFFFFFFFFFFFFFFFFFFFFFFFFFF1D
:0CFFF400FFFFFFFFFFFFFFFFFFFFFFFF0D
:040000050027FFD4FD
:00000001FF
